:020000021000EC
:10E000004FC000006BC0000069C0000067C0000086
:10E0100065C0000063C0000061C000005FC0000078
:10E020005DC000005BC0000059C0000057C0000088
:10E0300055C0000053C0000051C000004FC0000098
:10E040004DC000004BC0000049C0000047C00000A8
:10E0500045C0000043C0000041C000003FC00000B8
:10E060003DC000003BC0000039C0000037C00000C8
:10E0700035C0000033C0000031C000002FC00000D8
:10E080002DC000002BC0000029C0000086F2000057
:10E09000C0F364F37FF3E1F38DF398F3A8F3B9F3DE
:10E0A00011241FBECFEFD0E1DEBFCDBF11E0A0E055
:10E0B000B1E0E0ECF1EF01E00BBF02C007900D9280
:10E0C000A03EB107D9F721E0A0EEB1E001C01D925A
:10E0D000A73FB207E1F7FCD40C94DEF891CFDC0146
:10E0E0001196ED91FC911297418121E030E0C90138
:10E0F0000C9002C0880F991F0A94E2F7842781834D
:10E100000895CF93DF93EC019A01AB0160E070E1D9
:10E110008EE090E0E1D4BA01A901415051096109B2
:10E12000710957FF08C0E881F9818081826080838E
:10E130005F7766277727EC85FD85BB27A72F962F6E
:10E14000852F8083EE85FF854083EA81FB811082E5
:10E15000EA81FB81808180618083EA81FB8180810B
:10E160008860808393E0EC81FD8191FB222720F978
:10E17000808120FB82F98083EC81FD81808190FB8E
:10E1800081F98083DF91CF910895FC01A681B78149
:10E1900081E090E0008802C0880F991F0A94E2F79E
:10E1A0002C9130E028233923232BD1F30284F385EB
:10E1B000E02D60830895682F8091EE019091EF012A
:10E1C000E4DF80E090E00895DC01ED91FC91208196
:10E1D00027FFFFCFDC011A96ED91FC911B97808100
:10E1E00008952F923F924F925F926F927F928F92FB
:10E1F0009F92AF92BF92CF92DF92EF92FF920F93D6
:10E200001F93CF93DF9300D000D000D0CDB7DEB7FF
:10E210008C018F9A8E9A96988091000190910101BD
:10E22000A0910201B091030189839A83AB83BC83DF
:10E2300081E2482E81EA582E87E0682E712C1D82DB
:10E24000E12CF12C18018DEB281A87EF380A4801D0
:10E2500091E1890E911C94E0A92E91E0B92EA1E0E4
:10E260004A1A51086108710809F451C0D801ED91AA
:10E27000FC91808187FF47C0A895969AC801A4DFCA
:10E280006801CE0CDF1CF601818B8091F0018823A0
:10E2900021F1FD81FF5FFE838D818370E1E0F0E07D
:10E2A000EC0FFD1FE80FF11D2081D60152961C9244
:10E2B0009F928F92F101808191818E199F099F9386
:10E2C0008F931F922F93BF92AF9280D40FB6F89482
:10E2D000DEBF0FBECDBF9E819D83D60151968C912E
:10E2E0008A30C9F08D30B9F08823A9F0843199F0D3
:10E2F00097012F5F3F4FF101808191810197E816CF
:10E30000F90641F07901F5E0FA95F1F7A8CF80E040
:10E3100090E010C079019698F801EE0DFF1D8189FB
:10E32000843109F0118AF801EB5BF74F81E08083BB
:10E33000C801419626960FB6F894DEBF0FBECDBF3A
:10E34000DF91CF911F910F91FF90EF90DF90CF90D1
:10E35000BF90AF909F908F907F906F905F904F9005
:10E360003F902F900895CF93DF93EC01E881F981DE
:10E37000808187FF03C0CE0127DFF8CFDF91CF91E7
:10E380000895EF92FF920F931F93CF93DF93EC01C9
:10E390008C017C01E60EF71E0E151F0561F0E88169
:10E3A000F981808187FFF8CFCE010EDFF801818BE4
:10E3B0000F5F1F4FF1CFCE014196DF91CF911F919B
:10E3C0000F91FF90EF900895E0EEF1E08BED90EF6C
:10E3D000918780871386128682E083831586148650
:10E3E000A1EFB1E01396FC93EE9312971596FC9370
:10E3F000EE9314970895680F791FFC0120E030E038
:10E40000E617F707D9F081913827032E0294802D63
:10E410008F708327932F9025990F907E8927902DB9
:10E420009327907F9695032E000C991F369536956D
:10E4300036953F7139273227282FE2CF81E040817E
:10E4400051814217530709F080E00895E0E0F0E0C1
:10E450000994CF92DF92EF92FF921F93CF93DF93B5
:10E460001FB7F8942091680020FDFCCFE199FECF02
:10E4700023E0FB0180935B0020936800E895DA01BC
:10E4800053956B017C0121E0EC9111963C91119721
:10E49000C32FD0E0DC2FCC27CE0FD11DE091680038
:10E4A000E0FDFCCFE199FECF0E01F601E0925B00AA
:10E4B00020936800E8951124129632E0C30ED11C17
:10E4C000E11CF11C4A175B07F9F62091680020FD5A
:10E4D000FCCFE199FECF25E0FB0180935B00209308
:10E4E0006800E8958091680080FDFCCFE199FECF3F
:10E4F00081E180936800E8951FBF7894DF91CF9108
:10E500001F91FF90EF90DF90CF900895A2CF2F92B0
:10E510003F924F925F926F927F928F929F92AF92B3
:10E52000BF92CF92DF92EF92FF920F931F93CF9300
:10E53000DF932B013C01C32ED42EE52EFF2481E076
:10E5400090E0211531054105510511F480E090E07E
:10E550004C018C0C9D1C81E090E069017A0167E020
:10E56000D622EE24FF24CD28CE28CF2811F480E037
:10E5700090E0BA01A9012BE07695679557954795EC
:10E580002A95D1F71C01240E351E8FEF9FE724E05A
:10E59000815090402040E1F700C000008091EE01E2
:10E5A0009091EF01E0DE83E191E09F938F930ED392
:10E5B0008F9A8E9A0F900F90E12CF12C00E010E0D2
:10E5C000E214F30408F03DC062E078E08091EE01CF
:10E5D0009091EF01D6DE6C0160E078E00CDF8823DB
:10E5E00039F13FEFE31AF30AB02EAA24C0E0D0E0DD
:10E5F00008151905C0F4F601EC0FFD1FCE018A0DB8
:10E600009B1DA3019201280F391F411D511DCA01F5
:10E61000B901AF011EDF0F5F1F4FA895D395C1153C
:10E6200038E0D30729F74CE151E05F934F9304C0E2
:10E630008BE191E09F938F93C9D20F900F90969AA0
:10E64000BFCF82E291E0D5D2DF91CF911F910F91A0
:10E65000FF90EF90DF90CF90BF90AF909F908F9002
:10E660007F906F905F904F903F902F90EFCE3FB78D
:10E67000F8942091680020FDFCCFE199FECF23E0C3
:10E68000FB0180935B0020936800E89590916800FF
:10E6900090FDFCCFE199FECF91E190936800E89561
:10E6A0003FBF78940895CF92DF92EF92FF92CF937D
:10E6B000DF93CDB7DEB790E08830910508F071C0E8
:10E6C000FC01E85BFF402AC282E391E09F938F93B5
:10E6D0007DD20F900F90C12CD12C7601C701B601CD
:10E6E000C6DF8FEFD81AE80AF80AC1148FEDD806F2
:10E6F00081E0E806F10491F78BE391E010C082E439
:10E7000091E09F938F9362D29091F00181E08927ED
:10E710008093F0010F900F9054C08DE491E09A87A0
:10E720008987DF91CF91FF90EF90DF90CF904EC21D
:10E730008AE591E09F938F9349D298E088E10FB6E4
:10E74000F894A89581BD0FBE91BD0F900F90FFCF9B
:10E750001E861D8680E098E09C878B8782E691E08C
:10E760009A878987DF91CF91FF90EF90DF90CF90CC
:10E770002DC2DF91CF91FF90EF90DF90CF9066CECA
:10E780008A859B85D4D16B017C018C859D85CFD1F9
:10E79000A7019601DF91CF91FF90EF90DF90CF908E
:10E7A000B6CE89E691E09F938F9310D20F900F9091
:10E7B00081E891E0DF91CF91FF90EF90DF90CF90D3
:10E7C00007C0DF91CF91FF90EF90DF90CF90089539
:10E7D000AF92BF92CF92DF92EF92FF920F931F936F
:10E7E000CF93DF93CDB7DEB7AF970FB6F894DEBF08
:10E7F0000FBECDBF7C0186E891E09F8B8E8B8EE8AB
:10E8000091E0998F888F83E991E09B8F8A8F81E8CF
:10E8100091E09D8F8C8F8CE991E09F8F8E8F8BEA9A
:10E8200091E099A388A381EB91E09BA38AA38CEB51
:10E8300091E09DA38CA36AE370E0C7019ED1F7012C
:10E840002081243109F472C0222309F49AC0009770
:10E8500009F055C06E01F6E1CF0ED11C560110E053
:10E86000B701F501819191915F0192D1892BB9F5A1
:10E870001330C9F47E01F6E2EF0EF11C0AED11E04F
:10E88000F60180819181F2E0CF0ED11C9F938F938E
:10E890001F930F939BD10F900F900F900F90EC143C
:10E8A000FD0471F770C019828DB79EB745970FB6FA
:10E8B000F8949EBF0FBE8DBFADB7BEB7119685E170
:10E8C000FE01319601900D928A95E1F7812FEBDEE2
:10E8D0000FB6F894DEBF0FBECDBF812F64C01F5F9F
:10E8E000183009F0BDCFFF92EF9289EC91E09F9331
:10E8F0008F936CD10F900F900F900F9042C0FC013E
:10E90000108220E011E0120F0196FE013196E20F15
:10E91000F11DE20FF11D96A385A360E270E02DD1F9
:10E92000009799F1FC011082212FECCF82E03BC0CF
:10E930006E01F6E1CF0ED11C10E0B701F601819116
:10E9400091916F0125D1892BC9F48DB79EB7459759
:10E950000FB6F8949EBF0FBE8DBFADB7BEB7119670
:10E9600085E1FE01319601900D928A95E1F7812FA4
:10E970009ADE0FB6F894DEBF0FBECDBF1F5F183012
:10E98000E1F688E010C083E00EC01983DE019696A0
:10E99000FE01329680E0811759F22D913D9121932D
:10E9A00031938F5FF8CFAF960FB6F894DEBF0FBEEE
:10E9B000CDBFDF91CF911F910F91FF90EF90DF902E
:10E9C000CF90BF90AF9008950F931F93CF93DF9395
:10E9D000CDB7DEB7C954D8400FB6F894DEBF0FBE2E
:10E9E000CDBF80E090E0E2D3882309F464C02BE936
:10E9F00030E03A8329838AE990E09C838B838DE918
:10EA000090E09E838D8338872F839A8789878CE94E
:10EA100090E09C878B8788E990E09E878D8789E9C5
:10EA200090E0988B8F8785E0898B82E398E0CC5BC0
:10EA3000D74F99838883C454D840CA5BD74F188274
:10EA4000C654D84040E052EC61E070E08E010F5FA8
:10EA50001F4FC80156DB1093EF010093EE0187E0D2
:10EA6000C95BD74F8883C754D84081E390E0C85B27
:10EA7000D74F99838883C854D8408F9A8E9A979A93
:10EA8000A3DC8DE491E09F938F93A0D09FE088E179
:10EA90000FB6F894A89581BD0FBE91BD0F900F9051
:10EAA000CE01895B974F1BDBC8019BDB009709F008
:10EAB0008FDEA895F5CFCADCC75BD74F0FB6F894A9
:10EAC000DEBF0FBECDBFDF91CF911F910F91089593
:10EAD0007BDF80E090E00895A1E21A2EAA1BBB1B09
:10EAE000FD010DC0AA1FBB1FEE1FFF1FA217B3071A
:10EAF000E407F50720F0A21BB30BE40BF50B661F30
:10EB0000771F881F991F1A9469F7609570958095F3
:10EB100090959B01AC01BD01CF010895EE0FFF1F41
:10EB20000024001C0BBE0790F691E02D09941F9362
:10EB3000FC0199278827BC01E89411911032E9F370
:10EB4000193010F01E30C8F31B3249F01D3241F469
:10EB5000689405C026D0610F711D811D911D119112
:10EB600010531A30B8F33EF49095809570956195E6
:10EB70007F4F8F4F9F4F1F910895FC018191861702
:10EB800021F08823D9F7992708953197CF01089567
:10EB9000FB01DC018D91019080190110D9F3990BD3
:10EBA0000895592F482F372F262F660F771F881F5C
:10EBB000991F660F771F881F991F620F731F841F8D
:10EBC000951F660F771F881F991F0895CF93DF93B6
:10EBD000CDB7DEB7AE014B5F5F4FFA016191719126
:10EBE000AF018091F3019091F40133D0DF91CF9187
:10EBF00008950F931F93CF93DF93E091F301F0916A
:10EC0000F401238121FF1BC08C01D0E0C0E0F8019A
:10EC100081918F016091F3017091F401DB011896ED
:10EC2000ED91FC911997882331F00995892B79F39F
:10EC3000DFEFCFEFECCF8AE00995892B19F08FEF4A
:10EC40009FEF02C08D2F9C2FDF91CF911F910F91CD
:10EC500008952F923F924F925F926F927F928F9280
:10EC60009F92AF92BF92CF92DF92EF92FF920F935B
:10EC70001F93CF93DF93CDB7DEB72B970FB6F894E2
:10EC8000DEBF0FBECDBF6C017B018A01FC01178284
:10EC90001682838181FFBFC1CE0101963C01F6013E
:10ECA0009381F70193FD859193FF81917F018823E3
:10ECB00009F4ADC1853239F493FD859193FF8191BB
:10ECC0007F01853221F4B60190E0D6D1E8CF912CB6
:10ECD000212C312CFFE1F315D8F08B3279F038F488
:10ECE000803279F08332A1F4232D20611DC08D3252
:10ECF00061F0803369F4232D216016C0832D82607A
:10ED0000382EE32DE4603E2E2AC0F32DF8601DC09E
:10ED100037FC2DC020ED280F2A3040F08E32B9F498
:10ED200036FC75C1232D2064322E19C036FE06C074
:10ED30008AE0989E200D1124922E11C0EAE02E9EAA
:10ED4000200D1124222EF32DF0623F2E08C08C36A8
:10ED500021F4832D8068382E02C0883641F4F701F3
:10ED600093FD859193FF81917F018111B3CF982FFE
:10ED70009F7D9554933028F40C5F1F4F9FE3998338
:10ED80000DC0833631F0833771F0833509F055C0FB
:10ED900020C0F801808189830E5F1F4F88248394EF
:10EDA000912C530112C02801F2E04F0E511CF801C2
:10EDB000A080B18036FE03C0692D70E002C06FEF05
:10EDC0007FEFC5014ED14C018201F32DFF773F2E1D
:10EDD00015C0280122E0420E511CF801A080B1802C
:10EDE00036FE03C0692D70E002C06FEF7FEFC501F2
:10EDF0002DD14C01F32DF0683F2E820133FC19C058
:10EE0000822D90E088169906A0F4B60180E290E089
:10EE100033D12A94F5CFF50137FC859137FE8191E6
:10EE20005F01B60190E028D121102A9421E0821AD6
:10EE300091088114910479F7E1C0843611F0893684
:10EE400039F5F80137FE07C06081718182819381B5
:10EE50000C5F1F4F08C060817181072E000C880B6A
:10EE6000990B0E5F1F4FF32DFF763F2E97FF09C0C2
:10EE700090958095709561957F4F8F4F9F4FF0686B
:10EE80003F2E2AE030E0A30133D1882E861844C0FB
:10EE9000853731F4232D2F7EB22E2AE030E025C0B5
:10EEA000932D997FB92E8F36C1F018F4883579F0FB
:10EEB000AEC0803719F0883721F0A9C0E92FE06192
:10EEC000BE2EB4FE0DC0FB2DF460BF2E09C034FE73
:10EED0000AC0292F2660B22E06C028E030E005C007
:10EEE00020E130E002C020E132E0F801B7FE07C0C7
:10EEF00060817181828193810C5F1F4F06C06081A8
:10EF0000718180E090E00E5F1F4FA301F1D0882E49
:10EF10008618FB2DFF773F2E36FE0DC0232D2E7F4A
:10EF2000A22E891458F434FE0BC032FC09C0832D84
:10EF30008E7EA82E05C0B82CA32C03C0B82C01C00F
:10EF4000B92CA4FE0FC0FE01E80DF11D80818033B5
:10EF500021F49A2D997EA92E09C0A2FE06C0B39471
:10EF6000B39404C08A2D867809F0B394A3FC10C032
:10EF7000A0FE06C0B21480F4280C922C9B180DC081
:10EF8000B21458F4B60180E290E076D0B394F8CF92
:10EF9000B21418F42B1802C0982C212CA4FE0FC018
:10EFA000B60180E390E068D0A2FE16C0A1FC03C0C9
:10EFB00088E790E002C088E590E0B6010CC08A2D99
:10EFC000867851F0A1FE02C08BE201C080E2A7FC6E
:10EFD0008DE2B60190E050D0891430F4B60180E3A0
:10EFE00090E04AD09A94F8CF8A94F301E80DF11D8D
:10EFF0008081B60190E040D08110F6CF222009F444
:10F000004ECEB60180E290E037D02A94F7CFF601D9
:10F010008681978102C08FEF9FEF2B960FB6F894F1
:10F02000DEBF0FBECDBFDF91CF911F910F91FF903B
:10F03000EF90DF90CF90BF90AF909F908F907F9098
:10F040006F905F904F903F902F900895FC01059036
:10F05000615070400110D8F7809590958E0F9F1FDA
:10F060000895FC016150704001900110D8F780951F
:10F0700090958E0F9F1F08950F931F93CF93DF934B
:10F08000FB01238121FD03C08FEF9FEF2CC022FFE6
:10F0900016C046815781248135814217530744F4B5
:10F0A000A081B1819D012F5F3F4F318320838C93DD
:10F0B000268137812F5F3F4F3783268314C08B0112
:10F0C000EC01FB010084F185E02D0995892BE1F627
:10F0D000D80116968D919C911797019617969C933F
:10F0E0008E931697CE01DF91CF911F910F910895C6
:10F0F000FA01AA27283051F1203181F1E8946F9369
:10F100006E7F6E5F7F4F8F4F9F4FAF4FB1E03ED00E
:10F11000B4E03CD0670F781F891F9A1FA11D680FAC
:10F12000791F8A1F911DA11D6A0F711D811D911DDF
:10F13000A11D20D009F468943F912AE0269F112454
:10F140003019305D3193DEF6CF010895462F4770B8
:10F15000405D4193B3E00FD0C9F7F6CF462F4F7013
:10F16000405D4A3318F0495D31FD4052419302D071
:10F17000A9F7EACFB4E0A695979587957795679517
:10F18000BA95C9F700976105710508959B01AC0117
:10F190000A2E06945795479537952795BA95C9F73E
:10F1A000620F731F841F951FA01D0895E199FECF64
:10F1B0009FBB8EBBE09A99278DB30895F894FFCF3B
:10F1C0007C2F2D5C1B5B324B0D2563202533642087
:10F1D00025730072656164790A0D006E61636B0AC4
:10F1E0000D00626F6F746C6F6164657220646F6E86
:10F1F0006500776970696E670A0D00646F6E650A55
:10F200000D007465726D6D6F64650A0D00424F4F9D
:10F21000544C4F414445520A0D0072657365740A9F
:10F220000D0025750A0D2563000A0D417661696C94
:10F2300061626C6520636F6D6D616E64733A0A0D77
:10F240000068656C700077726974655F700077693B
:10F250007065007465726D6D6F64650072756E5FC8
:10F26000626F6F746C6F6164657200726573657450
:10F27000007061636B657473697A650072756E5FA7
:10F280006D61696E5F61707000636F6D6D616E645A
:10F2900020756E6B6E6F776E3A2025730A0D000035
:040000031000E00009
:00000001FF
